:020000040800F2
:10000000C0080020350200080544000835400008FB
:100010000144000809180008494A000800000000CF
:100020000000000000000000000000000146000881
:100030003D1800080000000059450008054600086A
:100040004F0200084F0200084F0200084F0200084C
:100050004F0200084F020008411800084F02000834
:100060004F0200084F0200084F0200084F0200082C
:1000700025180008311800084F0200084F02000838
:100080004F0200084F0200084F020008314A0008E2
:100090003D4A00080D180008191800084F02000812
:1000A0004F0200084F0200084F0200084F020008EC
:1000B0004F0200080D460008194600084F020008CC
:1000C0004F0200084F0200084F0200084F020008CC
:1000D0004F0200084F0200084F020008254A00089E
:1000E0004F0200084F0200084F02000800F002F81B
:1000F00000F090F80AA090E8000C82448344AAF132
:100100000107DA4501D100F085F8AFF2090EBAE82F
:100110000F0013F0010F18BFFB1A43F0010318473B
:100120003863000058630000103A24BF78C878C1D3
:10013000FAD8520724BF30C830C144BF04680C60ED
:10014000704700000023002400250026103A28BF35
:1001500078C1FBD8520728BF30C148BF0B60704739
:100160006E2900F00582702900F049836629AFF3FB
:1001700000806529AFF300806729AFF30080612913
:10018000AFF3008003681B0A28BF41F08001692992
:1001900000F0B281642900F0AF81752900F0AC81D4
:1001A0006F2900F0D782782900F01583E92900F043
:1001B0007182E42900F06E82F52900F06B82EF294C
:1001C00000F0D482F82900F014830368DB0928BF0B
:1001D00041F08001632900F0EE84732900F0F3847C
:1001E000E32900F0FE84F32900F003850020704726
:1001F0001FB501F03FF804000020002105F0C6FA09
:10020000401C60600020002105F0AAFAE0601FBDDC
:1002100010B510BD00F03AFD1146FFF7E9FF04F0FC
:100220000BFD00F0DDFF03B4FFF7F2FF03BC01F0AC
:10023000ABF800000948804709480047FEE7FEE7A1
:10024000FEE7FEE7FEE7FEE7FEE7FEE7FEE7FEE786
:1002500004480549054A064B704700000946000856
:10026000ED000008C0020020C0080020C0040020EB
:10027000C00400200FB41CB50C0007AA009007D0E2
:100280004142A14202D32044401E01E04FF0FF3022
:10029000074B7B4469460190069800F082F90021E3
:1002A000002C01D0009A11701CBC5DF814FB0000FA
:1002B00033030000401ECAB210F8011F8A4202D068
:1002C0000029F9D10020704730B505460B462A4673
:1002D00013F8014B12F8010B08B1A042F8D01CB181
:1002E000002802D06D1CF1E7284630BD10B5431C34
:1002F00002E010F8011B71B18107FAD14FF0013211
:1003000002C88C1A8C4314EAC211F9D0C01A0A062A
:1003100003D0C01E10BDC01A10BD0A0401D0801E3B
:1003200010BD0902FCD0401E10BD032A40F23080EF
:1003300010F0030C00F0158011F8013BBCF1020F26
:10034000624498BF11F801CB00F8013B38BF11F8A7
:10035000013BA2F1040298BF00F801CB38BF00F8BE
:10036000013B11F0030300F02580083AC0F008803B
:1003700051F8043B083A51F804CBA0E80810F5E71F
:10038000121D5CBF51F8043B40F8043BAFF3008002
:10039000D20724BF11F8013B11F801CB48BF11F877
:1003A000012B24BF00F8013B00F801CB48BF00F847
:1003B000012B704710B5203AC0F00B80B1E81850FF
:1003C000A0E81850B1E81850A0E81850203ABFF43F
:1003D000F5AF5FEA027C24BFB1E81850A0E81850DE
:1003E00044BF18C918C0BDE810405FEA827C24BF32
:1003F00051F8043B40F8043B08BF7047D20728BFC0
:1004000031F8023B48BF11F8012B28BF20F8023B0E
:1004100048BF00F8012B704770477047704710B510
:1004200000F014FB006810BD10B5044600F00EFB90
:10043000046010BD70B5044685690068C10601D529
:10044000302600E02026C00707D070BDD4E9012186
:1004500030469047206A401C20626D1EF6D570BD64
:1004600070B5044685690078C00707D170BDD4E92E
:10047000012120209047206A401C20626D1EF6D585
:1004800070BD09684A0501D540B27047C905FCD561
:1004900000B2704709684A0501D5C0B27047C90566
:1004A000FCD580B2704770B50C460546012A05D0D0
:1004B0002878800600D5EA69002302E0012305E0E0
:1004C0005B1C934202D2E05C0028F9D1A869E618CF
:1004D000C01AA861286A184428622846FFF7AAFFB4
:1004E00004E0D5E9012114F8010B9047B442F8D398
:1004F0002846FFF7B5FF70BD2DE9F0410646002400
:1005000010687529314616A510D0FFF7BAFF0028EC
:1005100002DA404213A507E031688A0701D512A527
:1005200002E0490704D511A5012401E0FFF7B2FF5D
:1005300000210A2206F1240709E0B0FBF2FCB0FB1F
:10054000F2F302FB1C00303078541846491C002896
:10055000F3D123462A463046BDE8F04100F0C8BA40
:10056000000000002D0000002B0000002000000013
:1005700011680268006A530501D508700AE0D305C6
:1005800001D5088006E0130603D5C217C1E90002B1
:1005900000E008600120704701694A1C0261087888
:1005A000704700B58FB0CDE90131002105910549B3
:1005B0007944CDE903101146684600F02BF90FB0DD
:1005C00000BD0000E5FFFFFFD1E900239A4202D2FF
:1005D000531C0B60107070472DE9FF5F15468A466B
:1005E0000446DFF8AC80F8440027D8E900103E4606
:1005F000CDE9001010E03AF816106A4602A800F0A3
:100600001CFB411C07D02178890603D5E269391803
:1006100091420DD80744761C2078800602D5E06907
:10062000B84205DDAE42E6DB3AF816000028E2D11A
:10063000A069C01BA0612046FFF7FCFED8E90010AE
:10064000CDE90010002017E03AF818106A4602A819
:1006500000F0F3FAB0F1FF3F81460BD000250DF119
:10066000080B05E0D4E901211BF8050090476D1C3B
:100670004D45F7D308F10100B0428046E4DB206A23
:10068000384420622046FFF7EBFEBDE8FF9F0000E4
:10069000665D00002DE9F0418046D21D22F0070280
:1006A0000025D2E90002F52915A614D0011E72F129
:1006B000000106DA0023D0EB030063EB020211A66F
:1006C00008E0D8F800108B0701D50FA602E0490713
:1006D00001D50EA601251146002408F1240704E0E7
:1006E00000F0B8F930323A55641C50EA0102F7D1F3
:1006F0002B46324621464046BDE8F04100F0F8B9AD
:10070000000000002D0000002B0000002000000071
:1007100030B4002100F1240408E002F00705D208FB
:10072000303542EA4372DB086554491C52EA03053E
:10073000F3D10468002310A2250708D504F0200493
:100740000C4304D0C46901230CA2641EC46130BCF4
:1007500000F0CEB910B5044621461068FFF79AFEA6
:1007600002462046BDE810400023D1E7D21D22F00A
:100770000701D1E90023CBE70000000030000000B2
:10078000F0B40D460188090502D5214C7C4402E0F5
:100790001F4C7C440E34002100F1240608E002F0D6
:1007A0000F071209E75D42EA03721B097754491CDF
:1007B00052EA0307F3D102780023120704D5702D03
:1007C00006D009B1022311342246F0BC00F090B9E2
:1007D00001231034F8E770B504460D462146106831
:1007E000FFF758FE024629462046BDE87040002328
:1007F000C6E7D21D22F00703D3E90023C0E7036850
:10080000126843F0200303600823C3610023B7E7A5
:10081000C85B00002DE9F05F894604464FF0000AEE
:10082000DFF874B1FB44C0F820A02046E168884797
:10083000002874D0252806D0D4E901219047206AE9
:10084000401C2062F1E700265F462046E1688847A9
:100850002028054607DB312D05D2781910F8200C29
:1008600008B10643F1E7B00701D526F00406C4F845
:100870001CA00027C4F818A02A2D09D0284604F08F
:10088000ECFE38B304EB8708303DC8F8185019E087
:1008900059F8041B204604EB87029161E168884700
:1008A000012F054618D1E069002820DA26F020063D
:1008B0001DE0D8F8180000EB800005EB4000303850
:1008C000C8F818002046E1688847054604F0C5FED0
:1008D0000028EED1012F0AD02E2D08D12046E16844
:1008E00088477F1C0546022F46F02006C4DBA0691E
:1008F000002803DA404246F00106A061F00701D06B
:1009000026F010066C2D0BD0682D09D04C2D39D057
:100910006A2D35D0742D35D07A2D33D016E038E0DD
:10092000E1682F4620468847B842054609D16C2F1A
:1009300026D04FF48060E16806432046884705468C
:1009400004E06C2F1AD04FF4807006430DB3A5F16C
:100950004100192802D8203546F400664A46294647
:10096000204626604E46FFF7FBFB80B101280BD0E6
:10097000F61D26F0070000F1080956E74020E4E7DD
:100980008020D8E70020D6E706F104094DE7284685
:1009900052E7206ABDE8F09F585B00000FB40B00DF
:1009A00010B54FF000048AB00FA900910E99CC60E9
:1009B000234C7C44234A7A44CDE9064200D00423E8
:1009C0006FF00042CDE901321F4A7A446B4608922B
:1009D0000246002005F09EFC0AB010BC5DF814FB36
:1009E000F0B507464FF0FF301E4615460C463B4615
:1009F00085B06A460091CDE901013146002004909E
:100A000004A8FFF7CBFF04990346601825B109B18C
:100A1000024600E022462A6000290ED0002B02DDAB
:100A20000099814209D03B466A463146001B00943A
:100A3000CDE9010404A8FFF7B1FF05B0F0BD000047
:100A4000450200005F0200001101000000487047ED
:100A50001000002030B5B0F10A0271F100034FEA36
:100A6000900E4EEA817EB0EB0E0061EB91014FEAF1
:100A7000101E4EEA017E10EB0E0041EB11114FEA01
:100A8000102E4EEA016E10EB0E0041EB11214FEAE1
:100A9000104E4EEA014E10EB0E0041EB1141401892
:100AA00041F100014FEAD00040EA41704FEAD10124
:100AB0004FEA810444EA907410EB800544EB010492
:100AC0006D1944EB0404521BA3414FF0000348BFCF
:100AD0000A3200D530BD401C41F1000130BD10B5D7
:100AE000044600F0F9F80068005D00F0010010BD58
:100AF0002DE9F0470D4699469246044600F1240838
:100B00000168880604D5E06921F01001216000E049
:100B10000120A84201DD471B00E00027A1697A19E6
:100B200002EB0900081AA0612078C00602D4204612
:100B3000FFF780FC002608E0D4E901211AF806003E
:100B40009047206A401C761C20624E45F4DB2078DA
:100B5000C0060AD52046FFF76DFC06E0D4E9012166
:100B600030209047206A401C2062381EA7F1010700
:100B7000F4DC07E0D4E9012118F805009047206A69
:100B8000401C2062281EA5F10105F3DC2046FFF77A
:100B900067FC2078000602D50220BDE8F08701201E
:100BA000FBE710B5436913B1AFF3008001E0FFF735
:100BB0007AFC012010BD127800F124010A70002295
:100BC0004A700122EDE711684FF0FF32E9E710B5F6
:100BD000436913B1AFF3008001E0FFF7FDFC012092
:100BE00010BD128800F1240182840022C2840122F7
:100BF000EDE711684FF0FF32E9E7426842B1016862
:100C000011F8013B23B1521EC0E90012184670478B
:100C10000121C160881E704742685AB1C3680168EB
:100C200043B983688B4205D0491E521CC0E90012AB
:100C3000002070474FF0FF3070472DE9F041164615
:100C40000C46054600F048F8036893F801010128B6
:100C500007D0FF2C12D8185D80B101202C70BDE8A0
:100C6000F081D3F807013246214603F20713C71873
:100C70002846BC46BDE8F041002360474FF0FF30F6
:100C8000EDE7000000487047100000207546FFF7B0
:100C9000F9FFAE4605006946534620F00700854639
:100CA00018B020B5FFF7D4FABDE820404FF0000699
:100CB0004FF000074FF000084FF0000BAC46ACE8D7
:100CC000C009ACE8C009ACE8C009ACE8C00921F033
:100CD00007018D467047000010B500F0CBFA001DEB
:100CE00010BD00BFA94A00002DE9FF4F06468BB09A
:100CF0000878FF2806D0491C2D2805D000244FF085
:100D0000000908E000200CE00124F8E709EB890362
:100D1000491C00EB43090878FF28F7D114B1C9F149
:100D200000008146107800252C46AA4629462D2829
:100D300001D02B2804D1521C2D2813D0002082462C
:100D40008B461078FF280FD04FF0000C0A21521C60
:100D5000A5FB017804FB018105FB0C11C5194BEBC8
:100D60000104EEE70120EAE7002108464FF0000009
:100D7000BAF1000F02D000EB80004008C0F38157A9
:100D8000012F01DD4FF0FF370E9955EA040009EB02
:100D900001080BD04FF0020918F5FA7F16DA4FEA76
:100DA000CA70002F706008DD012007E04FEACA70AA
:100DB000C6E900B00FB0BDE8F08F00203060FFF74B
:100DC00045FEC0F800901821084616E0B8F5FA7FF5
:100DD00018DD002F02DAF748784401E0F64878443D
:100DE000D0E90010C6E9001040EACA707060FFF751
:100DF0002DFEC0F80090142108460FB0BDE8F04F5A
:100E000005F025BA002108464FF00000B8F10001B6
:100E1000099002DAC7F1000200E03A4601DAC8F1AF
:100E2000000106A800F03EFA06AB93E8070003AB0A
:100E300083E8070044F23E005BEA04010090584654
:100E400004D144F21E012C465D460091210C090498
:100E5000014306D10099240444EA15442D041039B5
:100E6000009104F07F41014306D10099240244EA35
:100E700015642D020839009104F07041014306D138
:100E80000099240144EA15742D01091F009104F012
:100E90004041014306D10099A40044EA9574AD0095
:100EA000891E009104F00041084304D100986D1997
:100EB0006441401E00904FF001033A466846B8F185
:100EC000000FCDE9014503A902DD04F00EFA01E0AF
:100ED00004F0E1F9BAF1000F04460D4601D084F0A8
:100EE0000044002108464FF00000099940F2FF77C6
:100EF000484010F00C0F07D124F00040284303D0E5
:100F0000C4F30A50B84212D1FFF7A0FDC0F8009018
:100F1000C4F30A50B8420AD1A8487844D0E9001076
:100F2000C6E9001004F000410843706042E7C6E9DA
:100F300000543FE72DE9FF4F1F464FF0000A4FF0E6
:100F4000FF38454691B0D7E90146CDF83CA000F006
:100F500091F9C0680168405C1090B96912986D1CE5
:100F60008847396A814688470028F6D1B9F1FF3FA2
:100F70000AD0002E24F4D06411DDB9F12B0F08D073
:100F8000B9F12D0F0BD102E0404615B013E744F440
:100F90008064B96912986D1C8847761E8146600589
:100FA00004A901D52D2000E02B20002E01F1010B1A
:100FB0000DF130088DF810003FDDB9F1690F08D050
:100FC000B9F1490F05D0B9F16E0F02D0B9F14E0F4A
:100FD0001CD13B4601A8009580E85002DDE91212C1
:100FE0006FF0020005F09AF9C11CCED10EE0B9698C
:100FF00012986D1C884781461398761E44F400743D
:1010000005600F98401C002E0F9016DDB9F1300FCF
:10101000EDD0B9F1780F02D0B9F1580F0DD10F987A
:1010200001280AD13B46CDE90054DDE91212001F28
:10103000029605F071F9C11CA7D1109989453ED1DE
:1010400044F0800406E01399681CAAF1010A44F4F4
:1010500000740860B9696D1C1298761E88473028A4
:101060008146F0D02BE01099894505D1200603D4A4
:10107000761E44F0800418E0484604F0EEFA08B307
:10108000761E0DF123029345A9F1300044F400745B
:1010900006D20BF8010B200607D5AAF1010003E0E8
:1010A000200602D40AF101008246A00502D5139958
:1010B000681C0860B96912986D1C88478146002E2B
:1010C000D1DC53E0002E51DDB9F1650F02D0B9F14A
:1010D000450F4BD1A00549D5B9696D1C1298761EF4
:1010E00024F440748847002E81460CDD2B2804D060
:1010F000B9F12D0F07D144F48074B96912986D1CB1
:101100008847761E8146E00501D52D2100E02B2180
:1011100008F8011BCDF8008021E0761E0DF13901A1
:10112000884544F400740CD2A9F1300010F0FF009F
:1011300088F8000002D10099884509D908F1010812
:1011400006E0E00501D51E4801E042F20F7082463C
:10115000B96912986D1C8847814613980560002E66
:1011600004DD484604F079FA0028D6D1F9691298CE
:101170008847FF2053468BF8000088F800000020C5
:101180000A900B9004AA0CA90AA8FFF7ADFDA005D0
:1011900002D46FF00100F8E614F0240F12D0E0073B
:1011A0001CD13868DDE90A12031D3B600068C0E904
:1011B000001213E0A4560000965600005A55000095
:1011C000F1D8FFFF0AA9684604F0D6F9E00705D177
:1011D0003868009A011D3960006802602846D4E62C
:1011E00010B50446AFF300802046BDE81040FFF77D
:1011F0001AB800004FF0013C50F8042B51F8043BA2
:101200009A4221D1A2EB0C03934313EACC1317D1DA
:1012100050F8042B51F8043B9A4215D1A2EB0C0371
:10122000934313EACC130BD150F8042B51F8043B31
:101230009A4209D1A2EB0C03934313EACC13DBD0FF
:101240004FF00000704700BFD01A01BAB1FA81F127
:1012500001F0180122FA01F0CB40DBB2C0B2C01A93
:10126000C1F120012CFA01F3D11A914311EAC31103
:10127000E6D170470048704730000020B2F12003EB
:101280000AD5C2F1200301FA02F120FA03F341EA80
:10129000030100FA02F0704700FA03F14FF000007A
:1012A000704700002DE9F047814616468AB0354860
:1012B00078440DC88DE80D0032487844801C03AC9A
:1012C0000DC884E80D0041F69B300844372190FB9F
:1012D000F1F290FBF1F5A5F1800501FB12041B3C36
:1012E00002D56442012000E00020DFF898A080468B
:1012F0000027FA44AAF1BE0A0EE0E0070AD03246FF
:10130000684607EB470101230AEB810103F0D8FF90
:101310008DE8070064107F1C002CEED1194F7F442C
:10132000AE3F19E0E80715D007EB04100DF1180ADD
:1013300090E80E008AE80E00C068F04201D19819CA
:1013400008903246012306A903A803F0B9FF03ABB6
:1013500083E807006D10641C002DE3D14FF00103FA
:1013600032466946B8F1000F03A802D003F07EFFB1
:1013700001E003F0A5FFC9E90001C9F808200AB09F
:10138000BDE8F0875C51000001491820ABBEFEE7C4
:10139000260002002DE9FF4F1F464FF03C0987B0A1
:1013A0004FF00042DDE9141001F10108DDF858A00A
:1013B00002EA40500390002005908346054604460B
:1013C0000490B969461E08988847AAF1010A02905C
:1013D000BAF1000F3BDD02982E2815D0102100F045
:1013E00004FA00282EDB4FF0010B0599014317D0BA
:1013F000B9F1000F0BDB4A46C117FFF73FFF05436A
:101400000C43A9F1040905E0012004900BE008B1A8
:1014100045F0010501200590049820B9361D02E031
:10142000049800B1361FB969089808F10108884787
:10143000BBF1000FAAF1010A0290C9D00999C1F8C5
:101440000080C5E70298702808D0502806D0F969B6
:1014500008988847BBF1000F14D04FE0002002909D
:101460000120BBF1000F049009D0B969089808F178
:1014700001088847AAF10109B9F1000F07DCF969F1
:10148000089888476FF001000BB0BDE8F08F2B285B
:1014900004D02D280CD14FF0FF300490B969089882
:1014A00008F101088847A9F10109B9F1000FE6DD4B
:1014B000411CE4D00A2100F098F90028DFDB0299F2
:1014C00008F1010801EB810100EB41000290B969CC
:1014D000089888470A2100F088F9099AA9F10109BA
:1014E000B9F1000FC2F8008001DD0028E7DAF969E0
:1014F000089888470499029800FB016655EA0400A1
:1015000004D004F04041090002D006E0039898E0BE
:10151000A40044EA9574AD00B61E04F00041080032
:1015200002D16D196441761E159810F0240F03D076
:101530004FF00B095C4803E04FF028096FF07D0085
:101540008246564507DAAAEB06018944B9F1410FF4
:1015500001DD4FF0410901200021A9F10102FFF74F
:101560008DFE024628400B462140084301D0012150
:1015700000E00021501E029143F1FF31284021403C
:10158000084301D0012000E000200299834651EA7F
:101590000B014FD0002108464FF00000039900F4E2
:1015A000400039B100EB80004FF4400100EBD070F7
:1015B00001EA60008015012802DD4FF0FF3000E0F5
:1015C00013D0401C36D0029860B3BBF1000F0CD191
:1015D0004A4601200021FFF751FE284021400843E0
:1015E00001D0012000E00020E0B101204A460021A6
:1015F000FFF744FE034640190A4661412D1A8C410B
:1016000011D3B9F1400F09DD159810F0240F02D065
:10161000AAF1340603E0AAF1170600E0761C0025C3
:101620004FF0004406E05B1E42F1FF3220EA030562
:1016300021EA0204CAF10100B04206DA1B4903980C
:1016400008430190002000900EE0039AC4F3D321D8
:10165000E80A0A43164940EA44500A433146CDE9B4
:101660000002684603F0EEFF159810F0240F0BD02F
:101670001598C00715D13868DDE90012031D3B60DD
:101680000068C0E900120CE002A8694603F074FF8C
:101690001598C00705D13868029A011D39600068A5
:1016A00002604046F0E6000002FCFFFF0000F07F11
:1016B0000000F03F2DE9FF4F92461D4685B04FF0E8
:1016C0000041DDE9124BDDE914727F1E01EA4B5047
:1016D000414940F0FF4940EA0108002122F0200082
:1016E0004928049102D04E2828D04CE03BA0012686
:1016F00007C88DE80700A9690698641C88477F1E03
:10170000014606D41DF8060018B121F020018142DF
:101710000BD0E96906988847032E34D0082E32D0C2
:101720006FF0010009B0BDE8F08F761C032E01D0E8
:10173000082EE0D1601CCAF80000DCE7A969069811
:10174000641C88477F1E2AD420F02000412826D11F
:10175000A9690698641C88477F1E20D420F02000C9
:101760004E281CD1A9690698641C88477F1E48F43E
:10177000002849F48009CAF8004001D4282806D07E
:10178000E969069888475FEACB7012D022E0A96920
:101790000698641C88477F1E01D4002803DAE96993
:1017A00006988847BCE72928F1D1641CCAF8004094
:1017B000E9E71BF0240F07D028680499031D2B606C
:1017C0000068C0E9001805E02868021D2A6000686A
:1017D000C0F800902046A5E70000F07F494E46493A
:1017E0004E4954590000000070473A2800D2303862
:1017F00020F02002412A01D3A2F13700884201D310
:101800004FF0FF3070470000FEE7000040F230105C
:10181000C2F2000000F0AEB940F23010C2F2000097
:1018200000F0A8B940F29C10C2F2000000F0B6BC73
:1018300040F25810C2F2000000F0B0BC7047000047
:10184000012000F023BE0000EFF3108072B600BF4D
:10185000FEE7000090F82020013A012A08D800682D
:1018600000F114020020136819431160704700BF93
:1018700000F1240201204FF4802113681943116004
:101880007047000010B590F820E0D0F800C0AEF12D
:10189000010EBEF1010FDCF808E011D81EF0E05F88
:1018A00018D0CEF3016E012000FA0EF018608B689C
:1018B000D3B14868CC6844EAC000034318E000BFD5
:1018C00000F1240101204FF480220B681A430A60C2
:1018D00010BD00BF00F1240101204FF400120B687D
:1018E0001A430A6010BD00BF0868CB6843EA405342
:1018F0000CEB0E10C0F880310B69C0F88431097D03
:10190000012905D100F5C2710B6843F480730B60A7
:101910005168C0F88C11126800F5C071C0F88821B8
:10192000002001220B681A430A6010BDB0B502689E
:1019300090F82030013B012B28D8D2F80002012377
:1019400040F00100C2F80002D1F814E0CC690EF0BA
:101950001F0003FA00F0D2F81C326FEA000C834338
:10196000012CC2F81C3217D06CBBD2F80C3203EA3F
:101970000C03C2F80C32CB688C8844EA034302EBB8
:10198000CE04C4F840320B4615E000BF416A41F472
:10199000802141620120B0BDD2F80C320343C2F86D
:1019A0000C320B688C8844EA034302EBCE04C4F883
:1019B000403201F10C038C681B8843EA044302EBBC
:1019C000CE04C4F84432D2F804328D6943EA0004EC
:1019D000D1F810E0096A002D08BF03EA0C04C2F830
:1019E0000442D2F81432BEF1000F43EA000408BFEB
:1019F00003EA0C040129C2F8144204D1D2F81C12E3
:101A00000843C2F81C02D2F8000220F00100C2F81C
:101A100000020020B0BD000090F82020013A012A09
:101A200006D80068426922EA01014161002070473E
:101A3000416A41F4802141620120704770470000F3
:101A400010B590F82040013C012C7BD8D0F800C0A4
:101A5000002900F08180DCF81040A40700F08180AC
:101A60000CEB011CDCF8B0410CF5D87E14F004043A
:101A70009460DCF8B04119BFE4085460640D146050
:101A8000DEF800400CF5DA7E04F00204D460DCF8E5
:101A9000B44124075ABFDEF8004004F00F040824C4
:101AA0001461DEF800400029C4F307249461DEF8D5
:101AB00000404FEA14445461DCF8B8211A700268FF
:101AC00002EB0112D2F8B8214FEA12225A700268D2
:101AD00002EB0112D2F8B8214FEA12429A70026862
:101AE00002EB0112D2F8B8214FEA1262DA700268F2
:101AF00002EB0112D2F8BC211A71026802EB01124A
:101B0000D2F8BC214FEA12225A71026802EB01128C
:101B1000D2F8BC214FEA12429A71026802EB01121C
:101B2000D2F8BC214FEA1262DA71006814BF00F1EA
:101B3000100100F10C01002020220B681A430A60FA
:101B400010BD00BF00F1240101204FF480220B687A
:101B50001A430A6010BD00BFDCF80C40A4077FF4F4
:101B60007FAF00F1240101204FF400120B681A43EB
:101B70000A6010BD2DE9F04F81B004460068466947
:101B8000D0F804908768D0F80CB0D0F810A0D0F846
:101B90001880F10704D1002530071DD424E000BFD0
:101BA000F90710D00121BA07816009D4780700F144
:101BB000AF80380700F1B680204600F063FA02E0FB
:101BC000204600F061FA0025F80500F18780F8034F
:101BD00000F1B180300707D51BF0100004D0206859
:101BE00045F400751021C160700708D51BF008008E
:101BF00005D020680821C160204600F0D3F9B00765
:101C000006D52068C068800702D0204600F0CCF9D5
:101C1000700607D51AF0100004D0206845F48065DE
:101C200010210161B00608D51AF0080005D020681F
:101C300008210161204600F0F1F9F00606D5206880
:101C40000069800702D0204600F0EAF9B00308D509
:101C500019F0100005D0206810214160204600F0E6
:101C6000E1F9F00308D519F0080005D02068082133
:101C70004160204600F012FA300440F19B805FEA98
:101C8000497040F1948006F4807008EA10202843DF
:101C90005FEA8871014648BF41F00201B20558BFB2
:101CA00001465FEA48700D4648BF45F004057005DF
:101CB00058BF0D46300540F17A8018F0700000F0F2
:101CC00076801038000905286CD8DFE800F0035949
:101CD0005D61656945F0080564E000BF20684FF468
:101CE0008071BA0581600BD4780515D438051DD4F0
:101CF000204600F0CBF9F8037FF56CAF1BE000BF86
:101D0000204600F0C5F9F8037FF564AF13E000BF8B
:101D10004FF4006558E700BF05F50055F8037FF55F
:101D200059AF08E04FF480554EE700BF05F58045F8
:101D3000F8037FF54FAF20684FF48031BA0381601C
:101D40000AD4780310D4380314D4204600F0A2F942
:101D500030073FF541AF47E7204600F09DF93007D7
:101D60003FF53AAF40E700BF05F5004530073FF5C6
:101D700033AF39E705F5803530073FF52DAF33E751
:101D800045F010050EE000BF45F020050AE000BF59
:101D900045F0400506E000BF45F0800502E000BFC9
:101DA00045F480752068816921F0700181612068A7
:101DB0000421416055B1606A40EA05012046616234
:101DC00001B0BDE8F04FFFF739BE00BF01B0BDE87C
:101DD000F08F0000B0B5C8B1044690F8200010B9EB
:101DE000204600F071F82068016841F001010160AF
:101DF00000F074FC054600BF20684168C90707D1A0
:101E000000F06CFC401B0B28F6D312E00120B0BDA3
:101E1000016821F00201016000F060FC054600BF8E
:101E20002068416889070DD500F058FC401B0B283D
:101E3000F6D3606A052140F400306062012084F826
:101E40002010B0BD217E0268012922F0800208BF67
:101E500080320260617E0268012922F0400208BFE0
:101E600040320260A17E0268012922F0200208BFF0
:101E700020320260E17E0268012922F0100218BFC0
:101E800010320260217F0268012922F0080208BF97
:101E900008320260617F0268012922F0040208BF53
:101EA00004320260D4E901C2D4E9033561691A43FE
:101EB0002A431143ACF101021143C1610020012109
:101EC000606284F82010B0BDB0B586B0006846F2FC
:101ED0000042C4F2000200219042059102D006B0F7
:101EE000B0BD00BF41F21800C4F20200426840F6E3
:101EF000004442F0007242604268C4F2010402F001
:101F000000720192019A026802AD42F0080202607A
:101F1000006800F00800019001984FF48070CDE94E
:101F20000201012004902046294600F0BBFA4FF43C
:101F3000007002900220039003200590204629465D
:101F400000F0B0FA0420C4F20100016849F6FF7203
:101F5000CFF6FF02114041F0E06141F480410160A1
:101F600013200021002200F03BFC132000F024FC91
:101F700014200021002200F033FC142000F01CFC8F
:101F800015200021002200F02BFC152000F014FC8D
:101F900016200021002200F023FC162000F00CFC8B
:101FA00006B0B0BD7047000080B58AB003AA01AB8F
:101FB0000021FFF745FD40F27002BDF80400C2F2B7
:101FC0000002936890FA90FE00BAC3EB104040F60E
:101FD000B833D2F828C0984203464FF24841C8BFF0
:101FE000A3F50053CFF6FF718842B8BF00F5005348
:101FF00003EB0C00C2E909E0BDF80600BDF80810CB
:1020000000BA000C908508BA9DF80A10000CC2F8BE
:1020100008E0D08582F830100AB080BD704700001B
:102020007047000070470000B0B5044690F82000EB
:1020300001281DD1022084F820002068016821F0C9
:102040000101016000F04AFB054600BF20684068BE
:10205000C00713D000F042FB401B0B28F6D3606A88
:1020600040F400306062052084F820000120B0BDFB
:10207000606A40F4002060620120B0BD0020606210
:10208000B0BD0000704700007047000070470000BE
:102090007047000070470000704700007047000064
:1020A000014690F82100022816D10868D1E90FC333
:1020B000026822F00E020260026822F00102026051
:1020C000012000FA03F2CCF8042081F8210000205E
:1020D000002281F82020704704208863012000221C
:1020E00081F820207047000080B590F82110022967
:1020F00024D10268116821F00E0111602F211368AC
:10210000C4F202018A4240F20401C4F2020123F047
:102110000103136016DD3023C4F202039A421DD07E
:102120004423C4F202039A421CD05823C4F202038F
:102130009A421DD14FF4803322E000BF0421816315
:10214000012080BD0823C4F202039A420ED01C2352
:10215000C4F202039A420BD1102311E04FF48073B2
:102160000EE000BF4FF480530AE000BF012307E0F8
:1021700001F1680C4FF08073624508BF4FF4801383
:102180000B60012180F82110426B002180F82010A3
:102190000AB190470021084680BD000010B5D0E983
:1021A0000FCE0168DCF800300A6823FA0EF35C07F2
:1021B0002AD512F0040427D00A68920603D40A68CC
:1021C00022F004020A602F22C4F20202914240F27D
:1021D0000402C4F202025BDD3023C4F2020399421E
:1021E00072D04423C4F20203994273D05823C4F23C
:1021F0000203994240F07A804FF480231360C16A51
:10220000002940F098806FE09C0727D512F0020467
:1022100024D00A68920606D40A6822F00A020A60EC
:10222000012280F821202F22C4F20202914240F2C2
:102230000402C4F202023BDD3023C4F202039942DD
:1022400060D04423C4F2020399425FD05823C4F201
:102250000203994260D14FF4003365E01B0743D578
:1022600012F0080208BF10BD0A6822F00E020A60D0
:10227000012101FA0EF2CCF80420816380F82110CC
:10228000016B0022002980F8202054D12CE000BFEF
:102290000823C4F20203994222D01C23C4F2020391
:1022A000994223D140231360C16A002943D11BE026
:1022B0000823C4F2020399422CD01C23C4F2020367
:1022C000994229D120232FE04FF480631360C16A23
:1022D00089BB09E04FF480431360C16A59BB03E036
:1022E00004231360C16A31BB10BD00BF02F1680452
:1022F0004FF08063A14208BF4FF480031360C16AAE
:10230000C9B9F1E74FF400730EE000BF4FF400537A
:102310000AE000BF022307E002F168044FF00073F7
:10232000A14208BF4FF400131360816A0022002904
:1023300080F82020D8D0BDE810400847014600288A
:102340004FF0010008BF70472DE9F043D1F800C0FD
:102350004FF6F873CBF6FD734CF6CD426344CCF6E2
:10236000CC42A3FB02236FF0030707EA9303002785
:10237000C4F2020701F10C09C1E90F730223D1E98C
:10238000012E99E87002D1F81C8081F82130DCF828
:10239000003043F6F077BB431A4342EA0E02224371
:1023A0002A43324342EA090242EA0802CCF80020FA
:1023B00000228A6381F8210081F820200020BDE8F6
:1023C000F0437047F0B590F820C0BCF1010F32D057
:1023D0004FF0010E80F820E090F821C0BCF1010F11
:1023E00026D14FF0020C80F821C04FF0000CC0F84D
:1023F00038C0D0E900C4C56AC66BDCF80070102C88
:1024000027F00107CCF80070006C0EFA00F0706045
:102410000846CCF8043004BF10460A46CCF8080041
:10242000CCF80C20DCF8000045B140F00E000DE0C7
:10243000002180F820100220F0BD00BF20F0040031
:10244000CCF80000DCF8000040F00A00CCF80000F6
:10245000DCF8000040F00100CCF800000020F0BDE6
:10246000B0B5044600F03AF9054640F20000C2F269
:1024700000000078611C18BF044400BF00F02EF972
:10248000401BA042FAD3B0BD7047000040F2144197
:10249000C4F201010A68024214BF08607047FFF7E6
:1024A000F3BF00002DE9F04F82B00E68002E00F05F
:1024B000038141F20042C4F20102042340F2004EC3
:1024C000904208BF03234FF6FF7CC4F2010E009335
:1024D00000240123C1F2100C4FF0000A4FF0000954
:1024E00049E000BF012704F00C030F229A402BEAB9
:1024F000020207FA03F34FEA9A051A4346F8252029
:10250000D1F804B040F20C455FEACB22DEF8082097
:1025100054BF22EA080242EA0802C4F20105CEF8DA
:1025200008202A685FEA8B2354BF22EA080242EAA5
:1025300008022A605FEA8B33DEF8042054BF22EAE7
:10254000080242EA08025FEACB33CEF80420DEF844
:1025500000204FF0010354BF22EA080242EA0802B9
:10256000CEF800200E680AF1010A36FA0AF204F1E8
:10257000040400F0A18003FA0AF816EA080FF1D06B
:102580004E68664512DC122E56D8DFE806F0350B91
:102590004549555555555555555555555555554D0F
:1025A000510000BFD1F80C9046E000BF4FF6FF721B
:1025B000C1F2210296420FDC0022C1F211029642C2
:1025C0001AD00022C1F21202964215D00022C1F2A6
:1025D0002102964210D02FE00022C1F22202964240
:1025E0000AD00022C1F23102964205D00022C1F287
:1025F0003202964220D100BF8A684AB1012A14BF34
:10260000C0F81480C0F810804FF0080914E000BF33
:102610004FF0040910E000BFCA6802F108090BE09E
:102620004FF0000908E000BFCA6802F1040903E0A6
:10263000CA6802F10C0900BF22460646BAF1080F2B
:1026400024BF203A043637680F25954027EA050550
:1026500009FA02F22A433260CA79D2067FF582AFC4
:1026600041F21803C4F202031A68AEF57E7642F016
:1026700001021A601A6802F001020192019A2AF01E
:10268000030256F802B040F60002C4F20102904282
:1026900010D040F60042C4F2010290423FF422AF53
:1026A00041F20002C4F20102009F904208BF0227DB
:1026B00019E700BF002716E702B0BDE8F08F000061
:1026C000C26802EA0103914341EA03410161704794
:1026D000002A08BF090401617047000040F2B820D9
:1026E000C2F200000068704740F2000040F2B821DA
:1026F000C2F20000C2F2000100780A6810440860CB
:102700007047000080B542F20000C4F20200016888
:1027100041F010010160032000F08EF80F2000F05E
:1027200005F800F027F8002080BD000070B540F2E9
:102730000006C2F2000640F208013278C2F200013F
:102740004FF47A730968B3FBF2F20446B1FBF2F17D
:10275000084600F06BFB0F2C4FF0010508D838B984
:102760004FF0FF3021460022002500F039F8746058
:10277000284670BD82B041F21800C4F20200016820
:10278000022241F001010160016801F001010191A3
:102790000199416841F080514160406800F08050EB
:1027A000009000980420C4F20100016862F31A61ED
:1027B000016002B070470000002848BF7047C1B2F6
:1027C00000F01F00012202FA00F04EF20012CEF2D9
:1027D000000242EAD10121F00301086070470000C5
:1027E00010B54EF60C5CCEF2000CDCF80030C3F3F2
:1027F000022E8EF00704042C28BF0424BEF103032C
:102800004FF0FF3E0EFA04F438BF0023A143994075
:102810000EFA03F39A43114300F00F0200F16043F4
:102820000901043A03F564436244002848BF02F1F9
:102830000C03197010BD00004EF60C51CEF20001D1
:102840000A684FF6FF031A4060F30A2242F08060E4
:1028500040F0FD70086070472DE9F04381B000281A
:1028600000F0878042F20008C4F202080446D8F85B
:1028700000000D4600F0070088420CD2D8F8000096
:1028800020F007002843C8F80000D8F8000000F046
:102890000700A8426DD1206841F204098107C4F203
:1028A000020917D5410705D5D9F8001041F4E061B8
:1028B000C9F80010010705D5D9F8001041F460519E
:1028C000C9F80010D9F80010A26821F0F0011143F6
:1028D000C9F80010C00743D1D8F8000000F0070085
:1028E000A8420CD9D8F8000020F007002843C8F807
:1028F0000000D8F8000000F00700A84239D1206895
:10290000410707D5D9F80010E26821F4E0611143CE
:10291000C9F80010000708D5D9F80000216920F493
:10292000605040EAC100C9F80000D9F8001041F633
:10293000003001F00C02042AC0F2B70058D0082A77
:1029400044D146F24243C1F38342C0F600039A5C8D
:10295000C90341D440F60010C0F23D00504347E0A7
:10296000606802280AD001282AD159F8041C89037A
:1029700008D4012001B0BDE8F08300BF59F8041C61
:102980008901F6D5D9F8001021F003010843C9F8F0
:102990000000FFF7A3FE064641F28837D9F8000091
:1029A000616800F00C00B0EB810F95D0FFF796FE48
:1029B000801BB842F2D9032001B0BDE8F08300BF0C
:1029C00059F8041C8907D4D5DCE700BF41F2002088
:1029D000C0F27A000CE000BFD9F8001046F2404384
:1029E000C1F34041C0F60003595C5043B0FBF1F025
:1029F000D9F8001046F22842C1F30311C0F60002D4
:102A0000515C40F2080220FA01F140F20400C2F2E7
:102A100000000068C2F200021160FFF787FE00208C
:102A200001B0BDE8F083000040F2080041F204016B
:102A3000C2F20000C4F202010068096846F238429E
:102A4000C1F30221C0F60002515CC840704700008B
:102A500040F2080041F20401C2F20000C4F2020197
:102A60000068096846F23842C1F3C221C0F600028C
:102A7000515CC840704700002DE9F04182B0002849
:102A800068D00446007841F20006C007C4F202068E
:102A900025D0706800F00C0004281BD0706800F08E
:102AA0000C00082802D17068C00313D460680028A5
:102AB00000F06881B0F5A02F00F07C81B0F5803F78
:102AC00000F07C81306820F480303060306820F481
:102AD000802076E13068800301D56068D0B320782B
:102AE000800718D5706810F00C0F07D0706800F0E0
:102AF0000C0008286ED17068C0036BD43068800762
:102B000002D52069012825D13068616920F0F800DC
:102B100040EAC1003060207800071FD420784007C9
:102B200032D4E56995B1706800F00C00082840F0D7
:102B30008F80012D0ED07068216A00F480328A42A5
:102B400008D1616A00F47010884203D1002002B0FD
:102B5000BDE8F081012002B0BDE8F081A069002845
:102B600062D00020C4F242200121C0F88014FFF797
:102B7000B5FD0546706A800700F18C80FFF7AEFD59
:102B8000401B0228F6D92AE1F06910F0805808D1DC
:102B9000F06940F08050F061F06900F080500090E2
:102BA000009847F20007C4F200073868C00529D42E
:102BB000386840F480703860FFF790FD054600BF2C
:102BC0003868C0051ED4FFF789FD401B6428F7D97B
:102BD00005E100BF2069002840F20000C4F2422055
:102BE00000F0828001210160FFF778FD054600BFFB
:102BF000306880073FF588AFFFF770FD401B022863
:102C0000F6D9ECE0E068002800F08080052800F0AC
:102C10009780012800F09880306A20F0010030622F
:102C2000306A20F0040092E00020C4F2422000212B
:102C3000C0F88014FFF752FD054600BF706A800798
:102C40007FF56CAFFFF74AFD401B0228F6D9C6E0BE
:102C50000027C4F2422700203866FFF73FFD022D0F
:102C600005460BD13068800140F1BE80FFF736FD8C
:102C7000401B02284FF00300F4D968E73068800158
:102C80007FF564AFFFF72AFD401B02284FF00300D9
:102C9000F4D95CE740F20800C2F20000006844F694
:102CA000D351C1F26201A0FB0101480A019000BFAB
:102CB00000BF0198411E002801913FF42FAF00BFD3
:102CC0000198411E002801913FF428AF00BF0198F0
:102CD000411E002801913FF421AF00BF0198411E21
:102CE00000280191E4D119E700210160FFF7F6FC0B
:102CF000054600BF306880077FF50DAFFFF7EEFC9B
:102D0000401B02284FF00300F4D920E7306A20F07E
:102D100001003062306A20F004003062FFF7DEFC10
:102D2000054641F2883700BF306A800720D5FFF79B
:102D3000D5FC401BB8424FF00300F5D907E700BFB0
:102D4000306A40F004003062306A40F001003062C6
:102D5000FFF7C4FC054641F2883700BF306A8007A0
:102D600006D4FFF7BBFC401BB842F7D937E000BFE1
:102D7000B8F1000F7FF4D5AEF06920F08050F0611B
:102D8000CFE600BF306820F480303060306820F437
:102D900080203060FFF7A2FC054600BF306880034A
:102DA0007FF59DAEFFF79AFC401B64284FF00300AF
:102DB000F4D9CCE6306840F480203060306840F4CC
:102DC00080303060FFF78AFC054600BF3068800322
:102DD0003FF585AEFFF782FC401B6428F6D903203F
:102DE00002B0BDE8F08100BF206AB0F5803F05D198
:102DF0007168A26821F40031114371607168626AE0
:102E000021F4741111430843706001203866FFF704
:102E100065FC0446306880013FF598AEFFF75EFC24
:102E2000001B02284FF00300F4D990E6411E002059
:102E3000B0EB116F1CBF012070474EF21002CEF2B2
:102E4000000251604EF62351CEF20001F0230B70C8
:102E500007219060116070477047000070470000C4
:102E600010B590F83C20012A4FF0020233D080F8D0
:102E70003D200268D2F804E0D2F808C00C682EF0B9
:102E80007003234340F2FF74C4F20004A242536073
:102E90000ADCB2F1804F13D040F20043C4F20003C9
:102EA0009A420DD011E000BF42F60043C4F2010384
:102EB0009A4205D040F60003C4F200039A4204D1BE
:102EC00049682CF08003194391600121002280F8A9
:102ED0003D1080F83C20104610BD0000002804BFC3
:102EE0000120704710B5044690F83D0028B9002035
:102EF00084F83C00204600F06FF8022084F83D0082
:102F0000206840F2FF730268C4F2000342F6004CEE
:102F10009842C4F2010C15DCB0F1804F1AD040F297
:102F20000041C4F20001884214D0984218DCB0F18C
:102F3000804F1DD040F20041C4F20001884217D0FA
:102F40001AE000BF604505D040F60001C4F2000160
:102F50008842EAD1A16822F070020A439842E6DD75
:102F6000604505D040F60001C4F20001884203D15B
:102F7000216922F440720A43A36922F08001D4F847
:102F800004E0E268194360450160C262C0F828E0CD
:102F900002D16169CCF83010012141610269D20788
:102FA00003D0026922F001020261002084F8461079
:102FB00084F83E1084F83F1084F8401084F84110E3
:102FC00084F8421084F8431084F8441084F84510C3
:102FD00084F83D1010BD000010B582B0006840F6C6
:102FE0000001C4F20001884214D040F20041C4F252
:102FF0000001884228D141F21C00C4F2020001689D
:103000001D2441F002010160006800F002000190FF
:1030100001980DE041F21C00C4F2020001681E2478
:1030200041F004010160006800F004000090009885
:10303000204600210022FFF7D3FB204602B0BDE866
:103040001040FFF7B9BB00BF02B010BD90F83D10B3
:1030500001291CBF01207047022180F83D10006843
:1030600040F2FF72C168C4F20002904241F00101D7
:10307000C16009DCB0F1804F12D040F20041C4F2CF
:10308000000188420CD012E042F60041C4F2010176
:10309000884205D040F60001C4F20001884206D102
:1030A000816801F00701062904BF0020704701680C
:1030B00041F00101016000207047000001460068F6
:1030C00041F21113026A1A4204D00122002081F851
:1030D0003D207047026A40F244431A42F5D102682B
:1030E00022F0010202600122002081F83D20704799
:1030F0000146006841F21113C26822F00102C26069
:10310000026A1A4204D00122002081F83D20704753
:10311000026A40F244431A42F5D1026822F00102E9
:1031200002600122002081F83D20704780B590F8B0
:103130003C20012A4FF0020200F0C28080F83D20BE
:10314000D0F800C04FF67772DCF8083023EA0202AC
:10315000CCF808200B684F2B28DC1F2B44DD202BDC
:1031600045D0302B43D0402B40F0AC80D1F804E068
:10317000C968DCF82030DCF8202022F00102CCF80D
:103180002020DCF8182022F0F00242EA011123F09E
:103190000A0242EA0E02CCF81810CCF82020DCF823
:1031A000081041F0470121F0300180E06F2B27DD4E
:1031B000B3F5005F48D0B3F5805F7AD0702B40F054
:1031C0008180D1E901E3C968DCF8082043EA0E03F5
:1031D00022F47F4243EA01211143CCF80810DCF8C5
:1031E000081041F0770162E00BB1102B6AD1DCF8D6
:1031F000081021F07001194341F0070157E000BFAA
:10320000502B35D0602B5DD1D1F804E0C968DCF8D3
:103210002030DCF8202022F01002CCF82020DCF84E
:10322000182022F4704242EA013123F0A00242EA5F
:103230000E12CCF81810CCF82020DCF8081041F061
:10324000670121F0100132E0D1E901E3C968DCF83F
:10325000082043EA0E0322F47F4243EA012111438E
:10326000CCF80810DCF8081041F480411FE000BFE2
:10327000D1F804E0C968DCF82030DCF8202022F026
:103280000102CCF82020DCF8182022F0F00242EAFB
:10329000011123F00A0242EA0E02CCF81810CCF811
:1032A0002020DCF8081041F0570121F02001CCF873
:1032B00008100022012180F83D10002180F83C1008
:1032C000104680BD0122F5E77047000070B5044646
:1032D0000068C5680669B10716D515F0020113D05C
:1032E0006FF002010161012121778069800703D01D
:1032F0002046FFF7E9FF05E0204600F08FF8204662
:1033000000F08EF800202077700719D515F0040022
:1033100016D020686FF004010161022121778069D5
:1033200010F4407F04D02046FFF7CEFF06E000BF38
:10333000204600F073F8204600F072F80020207755
:10334000300717D515F0080014D020686FF0080179
:10335000016104212177C069800703D02046FFF76F
:10336000B3FF05E0204600F059F8204600F058F879
:1033700000202077F00619D515F0100016D020682F
:103380006FF01001016108212177C06910F4407FBE
:1033900004D02046FFF798FF06E000BF204600F06B
:1033A0003DF8204600F03CF800202077F00718BFD9
:1033B00015F0010002D1300609D412E020686FF048
:1033C00001010161204600F02DF8300609D515F005
:1033D000800006D020686FF0800101612046FFF771
:1033E0003BFD700609D515F0400006D020686FF04F
:1033F00040010161204600F063F8B00658BF70BD7F
:1034000015F0200008D021686FF0200220460A61E4
:10341000BDE87040FFF722BD70BD0000704700009E
:103420007047000040F22821C2F20001884218BF14
:103430007047F0B585B040F23017C2F20007384649
:103440000221FEF7E9FA40F27025AA20C2F2000537
:103450008DF813000DF1130128460122642300F0BA
:103460000FFD40F27000C2F200004168836AB0F9BB
:103470002E000024CDE9000140F2CC00C2F2000091
:1034800000F124060AA2304640210294FCF7F2FE25
:103490003046FCF72BFF82B22846314600F0ACFDE7
:1034A00038460221FEF7D6F905B0BDE8F040704776
:1034B00025642C25642C25642C25640D0A0000004D
:1034C0007047000070B582B0044690F84200202892
:1034D0000AD113460A4600294FF0010018BF002BFD
:1034E00006D102B070BD00BF022002B070BD00BFA7
:1034F00001202063002522206563A262A385656404
:1035000084F842002168E06B44F2AD7C44F60D1E65
:1035100044F23166C0F6000CC0F6000EC0F600069C
:103520000431C0E90ACEC0E90C65FEF74BFF0195F6
:10353000206801680191406801900198206928B3D2
:10354000206850E8030F216840F4807041E80302CE
:10355000E2B1206850E8030F216840F4807041E830
:1035600003029AB1206850E8030F216840F480708C
:1035700041E8030252B1206850E8030F216840F48B
:10358000807041E80302002ADAD100BF206850E8C9
:10359000050F216840F0010041E80502BAB3206838
:1035A00050E8050F216840F0010041E8050272B3C0
:1035B000206850E8050F216840F0010041E805024D
:1035C0002AB3206850E8050F216840F0010041E867
:1035D0000502002ADAD11AE0206850E8050F2168B8
:1035E00040F0400041E80502DAB1206850E8050FDC
:1035F000216840F0400041E8050292B1206850E89F
:10360000050F216840F0400041E805024AB12068FA
:1036100050E8050F216840F0400041E80502002A0B
:10362000DAD1206B01282FD100200090206801689A
:103630000091406800900098206850E8030F2168CE
:1036400040F0100041E80302DAB1206850E8030FAF
:10365000216840F0100041E8030292B1206850E870
:10366000030F216840F0100041E803024AB12068CE
:1036700050E8030F216840F0100041E80302002ADF
:10368000DAD1002002B070BD012002B070BD000090
:1036900040F27021C2F20001884218BF70472DE944
:1036A000F04381B040F27008C2F2000808F13C0516
:1036B00028460A21FCF7FEFDC0B1074608F11406B2
:1036C0004FF00009781BC4B20F2C28BF0F243046DE
:1036D00029462246FCF729FE7D1C28460A2106F8C9
:1036E0000490FCF7E7FD07460028EBD140F6000008
:1036F000C4F201004FF40041FEF7E2FF08F11400AC
:1037000000F02CFF002348F83C3F40F27020C8E94D
:103710000133C8E90333C8E90533C2F2000041466A
:103720002022C8F81C3001B0BDE8F043FFF7CABE44
:1037300070470000B0B582B0044600680168C368F5
:10374000426901F02F05202D03F0200506D12DB18F
:10375000204602B0BDE8B04001F0E4B85FEA017C69
:103760001EBF02F0010E03F4907212EB0E0253D151
:10377000226B012A05D111F0100218BF13F01002BC
:1037800036D10A0622D513F080021FD094F84110DA
:1037900021293FD1A168B1F5805F03D121690029BA
:1037A00000F07082216A4A1C226209784160E18C33
:1037B00001390A04E1842DD1C16821F08001C16082
:1037C000C16841F04001C16002B0B0BD490621D5D9
:1037D00013F040011ED0C16821F04001C1602021DA
:1037E000204684F8411002B0BDE8B04000F020BC93
:1037F000002101910168019141680191019940699D
:10380000400613D4A08DE18DE28D002A18BF8842B6
:1038100040F0BA8102B0B0BDCA0718BF13F480727D
:1038200040F0B6804A0700F1B980BEE0E06B016865
:1038300049688AB2002AEDD0A38D9A42EAD2E18586
:103840008069202800F09C80206850E8030F2168E0
:1038500020F4807041E80302DAB1206850E8030FD9
:10386000216820F4807041E8030292B1206850E89A
:10387000030F216820F4807041E803024AB12068F8
:1038800050E8030F216820F4807041E80302002A09
:10389000DAD1206850E8050F216820F0010041E8E6
:1038A0000502DAB1206850E8050F216820F0010018
:1038B00041E8050292B1206850E8050F216820F028
:1038C000010041E805024AB1206850E8050F21686F
:1038D00020F0010041E80502002ADAD1206850E812
:1038E000050F216820F0400041E80502DAB12068A8
:1038F00050E8050F216820F0400041E8050292B130
:10390000206850E8050F216820F0400041E80502DA
:103910004AB1206850E8050F216820F0400041E8D6
:103920000502002ADAD1202084F84200002020631A
:10393000206850E8030F216820F0100041E80302DE
:10394000DAB1206850E8030F216820F0100041E848
:10395000030292B1206850E8030F216820F01000A4
:1039600041E803024AB1206850E8030F216820F0C3
:10397000100041E80302002ADAD1E06BFEF790FB69
:1039800002206063A08DE18D401A81B2204674E16F
:10399000626C42F0010262644A0706D5BEF1000F74
:1039A00003D0626C42F0020262648A0706D5BEF15F
:1039B000000F03D0626C42F004026264BCF1000F9D
:1039C00009D545EA0E02B2FA82F2520903D1626CBD
:1039D00042F008026264626C002A3FF41BAF11F0EF
:1039E000200118BF002D03D0204600F09BFF206867
:1039F0004069616C00F0400001F00801401800F0DF
:103A0000B58000BF206850E8030F216820F4907053
:103A100041E80302BAB3206850E8030F216820F49C
:103A2000907041E8030272B3206850E8030F2168E8
:103A300020F4907041E803022AB3206850E8030F95
:103A4000216820F4907041E80302002ADAD11AE0DC
:103A5000206850E8050F216820F0010041E80502C8
:103A6000DAB1206850E8050F216820F0010041E834
:103A7000050292B1206850E8050F216820F001008E
:103A800041E805024AB1206850E8050F216820F09E
:103A9000010041E80502002ADAD1206B012824D177
:103AA000206850E8030F216820F0100041E803026D
:103AB000DAB1206850E8030F216820F0100041E8D7
:103AC000030292B1206850E8030F216820F0100033
:103AD00041E803024AB1206850E8030F216820F052
:103AE000100041E80302002ADAD1202084F84200C5
:103AF000002020632068406940063FD5206850E8D8
:103B0000050F216820F0400041E80502DAB1206885
:103B100050E8050F216820F0400041E8050292B10D
:103B2000206850E8050F216820F0400041E80502B8
:103B30004AB1206850E8050F216820F0400041E8B4
:103B40000502002ADAD1E06BC0B144F22561C0F66B
:103B500000014163FEF7C8FA00283FF45BAEE06B5A
:103B6000416B02B0BDE8B040084700BF2046FFF7F8
:103B7000DFFD0020606402B0B0BD00BF204602B08F
:103B8000BDE8B040FFF7D4BD401A216851E8031FDB
:103B9000226821F4907142E80313DBB1216851E8F7
:103BA000031F226821F4907142E8031393B1216846
:103BB00051E8031F226821F4907142E803134BB1CE
:103BC000216851E8031F226821F4907142E8031331
:103BD000002BDAD1216851E8051F226821F001018C
:103BE00042E80513DBB1216851E8051F226821F086
:103BF000010142E8051393B1216851E8051F2268CD
:103C000021F0010142E805134BB1216851E8051F7D
:103C1000226821F0010142E80513002BDAD12021AE
:103C200084F8421000212163216851E8031F2268B3
:103C300021F0100142E80313DBB1216851E8031FB2
:103C4000226821F0100142E8031393B1216851E882
:103C5000031F226821F0100142E803134BB12168D1
:103C600051E8031F226821F0100142E80313002BE2
:103C7000DAD1022281B22046626302B0BDE8B040D0
:103C8000FFF706BD216A31F8022B6FF35F22426015
:103C900021628CE5002804BF0120704710B504465E
:103CA00090F8410028B9002084F84000204600F038
:103CB00063F8242084F841002068D4E90212C36824
:103CC00023F40053C360036923F440531A43026191
:103CD000D4E904231143C268194341F20C639A43A7
:103CE0001143C1604169A26921F44071114343F657
:103CF0000002C4F201029042416103D0FEF794FE3B
:103D000002E000BFFEF7A4FE62681921484391005B
:103D1000B0FBF1F048F21F51C5F2EB11A0FB0123FB
:103D20005A094FF69C73C0F6FF7302FB030032235F
:103D300003EB0010A0FB0101F02303EA51132068FC
:103D400003EB0212C1F3431111448160016921F4B4
:103D500090410161416921F02A014161C16841F44A
:103D60000051C16000202021606484F8411084F873
:103D70004210606310BD00002DE9F04186B040F6AE
:103D800000450446C4F201050068A5F5444100273A
:103D90008842049702D006B0BDE8F08141F21800D5
:103DA000C4F20200416802AE41F4802141604168E2
:103DB00040F21C0801F48021019101990168C4F2CC
:103DC000020841F0080101600068314600F0080077
:103DD000019001984FF4806002900220039003202C
:103DE00005902846FEF75EFB4FF40060CDE9020720
:103DF000284631460497FEF755FB40F2581508F166
:103E00001400C2F2000580264FF40051C5E90007F6
:103E10002846C5E90276C5E90477C5E90671FEF7CB
:103E20008DFA002818BFFDF70FFDE5636C6240F2C4
:103E30009C15C2F20005102000214FF44052C5E944
:103E400000802846C5E90216C5E90411C5E9061235
:103E5000FEF774FA002818BFFDF7F6FC27200021B2
:103E60000022A5636C62FEF7BBFC2720FEF7A4FCD2
:103E700006B0BDE8F0810000704700007047000008
:103E80002DE9F041044690F8410020281CBF022093
:103E9000BDE8F0810D4600294FF0010000F0AA8036
:103EA0001646002A08BFBDE8F0810020606421208A
:103EB000984684F84100FEF711FCA684E684A168C8
:103EC0000646B1F5805F02D12069002862D02F46F6
:103ED0000025E08C002861D018F1010018D0B8F15D
:103EE000000F37D1216808E017F8010B4860E08C1B
:103EF0000138E084E08C002851D00868000673D5B2
:103F0000002FF1D135F8020B00276FF35F20EDE7AA
:103F1000216802E00868000609D40868000606D493
:103F2000086800065CBF08685FEA0060F2D51FB150
:103F300017F8010B05E000BF35F8020B00276FF3FF
:103F40005F204860E08C0138E084E08C0028E4D1F8
:103F500025E000BF216800BF0868000608D4FEF70E
:103F6000BDFB801B404541D82168C868F4E700BF0D
:103F700017B117F8010B04E035F8020B00276FF3B7
:103F80005F204860E08C0138E084E08C0028E3D1B9
:103F900005E000BF0027E08C00289DD1216808685B
:103FA00040061FD4B8F1000F1ED018F101000FD148
:103FB0000868400616D40868400613D4086840060E
:103FC00010D4086840064FF00000F1D50FE000BFA4
:103FD000FEF784FB801B404508D82068C168006854
:103FE0004006F5D5002002E0FEF778FB03202021F3
:103FF00084F84110BDE8F081034690F84100202884
:104000001CBF0220704700294FF0010018BF002A92
:1040100000D170471962002021219A84DA84586403
:1040200083F841101968CA6842F08002CA6070477C
:1040300070470000FEE700002DE9F04F8BB040F222
:10404000E010C2F20000FFF753F840F27000C2F235
:104050000000806A0190FEF741FB44F2FD4B40F204
:10406000301604464FF00009C4F2FD4B4FF008082B
:10407000C2F2000605AF02AD0DF1100A4FF4007058
:104080000590304639462A465346CDE90799CDF882
:104090002480CDF808B0CDF80CB0FDF7F3FB01207B
:1040A000FEF7DEF9FEF71AFB001BB0F5FA7FE5D943
:1040B000FEF714FB40F27001C2F200018D6A019913
:1040C0000446691A48BF49420A2905D30A20FEF767
:1040D000C7F928460195CDE740F270004BF602493A
:1040E00040F2301B0026C2F20000CBF602494FF02E
:1040F0000808C2F2000B4663866200BF05AF02AD3E
:104100000DF1100A4FF400700590584639462A46C2
:104110005346CDE90766CDF82480CDF80890CDF858
:104120000C90FDF7AFFB0120FEF79AF9FEF7D6FAE7
:10413000001BB0F5FA7FE5D9FEF7D0FA40F2700126
:10414000C2F200018D6A01990446691A48BF4942CA
:104150000A2905D30A20FEF783F928460195CDE701
:1041600042F21070281A40F27005C2F20005A863EE
:104170004FF4007005900820099040F230100024A0
:10418000C2F2000005A902AA04ABCDE90744CDE9BB
:104190000244FDF777FB2C700BB0BDE8F08F0000F8
:1041A00080B540F2301046F20041C2F20000C4F285
:1041B000000100234FF4803C092280E80E00C0E992
:1041C000033CC0E905338383FDF704FE002808BFE4
:1041D00080BDBDE88040FDF737BB000080B582B0F0
:1041E00041F21400C4F202000168002241F0010112
:1041F00001600068002100F00100019001980C208E
:10420000FEF7EEFA0C20FEF7D7FA0D20002100226F
:10421000FEF7E6FA0D2002B0BDE88040FEF7CCBA0A
:10422000F0B585B00020049041F21800C4F20200FD
:10423000016840F6000441F0200101600168C4F209
:10424000010401F02001009100990168012241F070
:104250000401016001684FF4004601F0040100917F
:1042600000990168012741F00801016000684FF4DE
:10427000004100F00800009000982046FEF728FA60
:104280000020C1F2310001ADCDE9020720462946E8
:104290000197FEF707F90220049020462946CDE950
:1042A00001670397FEF7FEF8062000210022FEF7C3
:1042B00097FA0620FEF780FA05B0F0BD80B586B00B
:1042C00040F2E0100021C2F2000040F2004249F644
:1042D0003F4C0591CDE90311CDE90011C4F2000274
:1042E00047F22F53C0E9021C01618021C0E900237D
:1042F0008161FEF7F3FD002818BFFDF7A5FA4FF422
:104300008050029040F2E010C2F2000002A9FEF7D5
:104310000DFF002818BFFDF797FA40F2E010C2F237
:1043200000006946FEF79CFD002818BFFDF78CFAD7
:1043300006B080BD80B586B040F228200021C2F2D0
:10434000000040F600024FF0630C0591CDE9031127
:10435000CDE90011C4F2000240F2CF23C0E9021CF3
:1043600001618021C0E900238161FEF7B7FD0028CB
:1043700018BFFDF769FA4FF48050029040F22820F0
:10438000C2F2000002A9FEF7D1FE002818BFFDF717
:104390005BFA40F22820C2F200006946FEF760FD99
:1043A000002818BFFDF750FA06B080BD10B540F2E6
:1043B000702444F60000C2F20004C4F200004FF47E
:1043C000165100220C2384E807002046C4E903228A
:1043D000C4E90532E261FFF75DFC002818BFFDF774
:1043E00033FA40F2AC01C2F2000120462022FFF76E
:1043F00069F82068C16841F01001C16010BD00007B
:10440000FEE70000FEE700002DE9F0478AB001F06A
:104410005DFD40F27009C2F20009D9F82810044687
:10442000084601F053FD0146204601F09BFE40F294
:10443000CC07C2F20007D7E90061D7E902A58046A0
:104440000846294601F0C2FD04463046414601F0C7
:10445000BDFD214601F052FC39690446504601F089
:10446000B5FD214601F04AFC796901F047FC0021C5
:104470000646C7E903857861C9F8100001F0BCFC65
:10448000B0B944F20001C4F29C51404601F0B4FCC2
:1044900070B909F11000002200230127C4F2FA329A
:1044A000C4F22F430146009700F0D0FA29E000BF84
:1044B0003046002101F099FCB0B944F20001CCF281
:1044C0009C51404601F091FC70B909F110000022A6
:1044D00000230127CCF22F42CCF2FA330146009799
:1044E00000F0B4FA0DE000BF09F110000022002333
:1044F0000127CCF22F42C4F22F430146009700F06F
:10450000A5FAD9F8100001F0C5FC4FF4007281B291
:1045100004920022CDE906220822090A8DF805003E
:104520008DF807008DF809008DF80B0040F230106F
:1045300008928DF804108DF806108DF808108DF88B
:104540000A10C2F2000004A901AA03ABFDF79AF910
:104550000AB0BDE8F08700007047000070B522A1E6
:104560000446FBF7B1FE40F27005C2F2000518B137
:104570000120287070BD00BF1DA12046FBF7A4FEDE
:1045800010B10020287070BD1BA12046FBF79CFED7
:10459000E0B1201D01F068F80023C4F259030022A5
:1045A00001F050F901F008F9D5E90D610446881BC6
:1045B00001F08CFC0146204601F008FD01F06AFC88
:1045C000304468600220287070BD00BF46F252413E
:1045D000C0F600012046FBF777FE002808BF70BD3B
:1045E0000320287070BD00BF4D4F444531000000CE
:1045F00053544F5000000000504F533A0000000049
:1046000070470000FEF770B87047000040F2E010FD
:10461000C2F20000FEF75ABE40F22820C2F20000AB
:10462000FEF754BE406A0021C185C184FFF780B8FF
:10463000406A01684A6990F84130212B2DD112F06F
:1046400080022AD00021C184016851E8031F02685A
:1046500021F0C00142E80313DBB1016851E8031FF8
:10466000026821F0C00142E8031393B1016851E8E8
:10467000031F026821F0C00142E803134BB1016837
:1046800051E8031F026821F0C00142E80313002B28
:10469000DAD1202180F841100168496990F8422060
:1046A000222A40F07D8011F0400179D00021C1859F
:1046B000016851E8031F026821F4907142E8031376
:1046C000BBB3016851E8031F026821F4907142E80E
:1046D000031373B3016851E8031F026821F490715A
:1046E00042E803132BB3016851E8031F026821F469
:1046F000907142E80313002BDAD11AE0016851E807
:10470000051F026821F0010142E80513DBB10168D1
:1047100051E8051F026821F0010142E8051393B139
:10472000016851E8051F026821F0010142E8051304
:104730004BB1016851E8051F026821F0010142E810
:104740000513002BDAD1016B012924D1016851E84E
:10475000031F026821F0100142E80313DBB1016876
:1047600051E8031F026821F0100142E8031393B1DE
:10477000016851E8031F026821F0100142E80313A9
:104780004BB1016851E8031F026821F0100142E8B3
:104790000313002BDAD1202180F84210002101639D
:1047A000416C41F010014164FEF7C2BF0168406AEC
:1047B0000968890600F19F800021C185016851E8E0
:1047C000031F026821F4807142E80313E3B101681A
:1047D00051E8031F026821F4807142E803139BB182
:1047E000016851E8031F026821F4807142E8031355
:1047F00053B1016851E8031F026821F4807142E857
:104800000313002BDAD100BF016851E8051F0268CD
:1048100021F0010142E80513BBB3016851E8051F0F
:10482000026821F0010142E8051373B3016851E801
:10483000051F026821F0010142E805132BB301684E
:1048400051E8051F026821F0010142E80513002B21
:10485000DAD11AE0016851E8051F026821F0400131
:1048600042E80513DBB1016851E8051F026821F039
:10487000400142E8051393B1016851E8051F026841
:1048800021F0400142E805134BB1016851E8051FD2
:10489000026821F0400142E80513002BDAD1202103
:1048A00080F84210016B012925D100BF016851E851
:1048B000031F026821F0100142E80313DBB1016815
:1048C00051E8031F026821F0100142E8031393B17D
:1048D000016851E8031F026821F0100142E8031348
:1048E0004BB1016851E8031F026821F0100142E852
:1048F0000313002BDAD100214163016B012918BF9A
:10490000FFF7BABA818DFEF7C3BE0000406A0121ED
:104910004163016B012918BFFFF7B0BA818D4908C7
:10492000FEF7B6BE81B090F84210222921D18368EB
:104930000246B3F5805F09D152F8281F52F8183C9F
:10494000002B63D003685B680AE000BF52F8281FA1
:1049500013B90369002BF5D003685B6803F07F038C
:104960000B70116801311160C18D01390A04C185D4
:1049700002D001B0704700BF0168CA6822F020026F
:10498000CA60CA6822F48072CA604A6922F00102D1
:104990004A61202180F8421000214163026B012A04
:1049A0003CD10163016851E8031F026821F0100146
:1049B00042E80313DBB1016851E8031F026821F0EC
:1049C000100142E8031393B1016851E8031F026824
:1049D00021F0100142E803134BB1016851E8031FB5
:1049E000026821F0100142E80313002BDAD10168BC
:1049F0000A68D20606D5002200920A680092496829
:104A000000910099818D01B0FEF742BE02685268A4
:104A10006FF35F2221F8022B8162A5E701B0FFF757
:104A20002BBA000040F27020C2F20000FEF782BEF6
:104A300040F23010C2F20000FDF79CB840F2301096
:104A4000C2F20000FDF796B8FEE700002DE9F04F36
:104A500083B092460C9ABAB18046501E1E460D464F
:104A6000032802F00300019012D20024019F5FB1DD
:104A700058F824903146484601F0B0F9002871D02A
:104A800045F82460012F7CD103B0BDE8F08F00BF52
:104A900022F003004FF000090024029009E000BF5B
:104AA00005EB0900C66002980434A04209F1100920
:104AB000DCD058F809703146384601F09DF918B934
:104AC00045F809600BE000BF3846514601F08DF90A
:104AD000002805EB090014BF0760C0F800A008EB30
:104AE000090BDBF804703146384601F077F918B14C
:104AF00005EB090046600AE03846514601F083F9AB
:104B0000002805EB090014BFC0F804A04760DBF8DB
:104B100008703146384601F061F918B105EB09001B
:104B200086600AE03846514601F06DF9002805EB31
:104B3000090014BFC0F808A08760DBF80C7031468C
:104B4000384601F04BF90028AAD13846514601F009
:104B50005AF9002805EB090014BFC0F80CA0C76083
:104B6000A1E700BF4846514601F04DF9002805EB8A
:104B7000840014BFC0F800A0C0F80090012F3FF4DB
:104B800083AF671C58F827903146484601F026F954
:104B900030B145F82760019802283FF475AF0FE067
:104BA0004846514601F02FF9002805EB870014BF55
:104BB000C0F800A0C0F80090019802283FF464AF4C
:104BC000023458F824703146384601F007F928B10C
:104BD00045F8246003B0BDE8F08F00BF3846514669
:104BE00001F011F9002805EB84000CBF0760C0F844
:104BF00000A003B0BDE8F08FF0B581B00D46D0E95C
:104C000006610446076A304601F078F8394601F03B
:104C100075F8206038464FF0404101F0D7F9314631
:104C200001F0A0FA6060002DA7601EBF0020C4E95B
:104C30000300606101B0F0BD90B0FDF763FD00249A
:104C40000120CDE90A44CDE90844059009904FF4CC
:104C500080104FF4803102250E9005A8CDE906148E
:104C6000CDE90C51FDF708FF20B1EFF3108072B6CB
:104C7000FEE700BF0F20CDE900054FF48060CDE9CD
:104C80000304684602210294FDF7E6FD20B1EFF32C
:104C9000108072B6FEE700BFFFF7C2FAFFF79EFA78
:104CA000FFF77EFAFFF782FBFFF708FBFFF742FBF7
:104CB00040F2E010C2F20000FEF700FA40F23015B8
:104CC0000120C2F200050024CDE90C0005A9284608
:104CD0000B94CDE90944CDE90744CDE90544FCF73F
:104CE00025FE2846FDF7A0F928460221A946FCF733
:104CF000B1FD40F2CC000021C2F20000C4F220114C
:104D00000022C0E906144FF07E51C4F2C002C0E98F
:104D10000014012102628460FFF76EFF40F2282038
:104D2000C2F20000FEF792F9FFF786F940F2700533
:104D3000C2F200054FF4007A4FF0080B6E460FAF39
:104D4000FDF7CCFCE968401A0A28F9D3FDF7C6FC48
:104D50002978E8600329F3D8DFE801F006162C0271
:104D6000FFF76AF9ECE700BF484605A932463B4623
:104D7000CDF814A0CDE90744CDF824B0CDE9004426
:104D8000FCF780FDDCE700BFD5E90D026978D5F8B6
:104D9000288000F5FA70002918BFA2F5FA70FFF715
:104DA00033FB687850B1A96BA1F5FA7188450ADA2E
:104DB0000CE000BF6868FFF727FBC1E7696B01F5EE
:104DC000FA71884502DC80F001006870FDF786FC0E
:104DD000E860B5E723F07F4720F07F4C80EA0300CE
:104DE00000F00040ACEB070303F57C5303F1FF0335
:104DF0002DE9804909B44FEA144324EA03484FEAF5
:104E0000154B25EA0B4E0FF2042606EB13273E78CE
:104E100003FB0667C7F5000707FB06F64FEAD64611
:104E200006F102064FEA543707FB066CCCF1005C32
:104E30004FEA1C472CEA074C0CFB06F507FB06F46F
:104E400004EB15464FEA961649085FEA320234BF72
:104E500000204FF000404FEAD13706FB07FC4FEA35
:104E60001C4C0CFB0BF7D21B03FB0CF761EB07018F
:104E70000CFB0EF7B0EB074072EB17420CFB08F788
:104E800034BFA2EB0742B2EB074261EB17414FEA96
:104E90000C444FEA910706FB07FC4FEA1C4C0CFB45
:104EA0000BF7B0EBC74072EB573203FB0CF734BF84
:104EB000A2EBC742B2EBC74261EB57310CFB0EF7D6
:104EC000B0EBC70072EB57720CFB08F734BFA2EBD4
:104ED000C702B2EBC70261EB57714FEA816141EA49
:104EE00092114FEA826242EA90124FEA806004EB2C
:104EF000CC04039F4FEAD13706FB07FC4FEA1C4C5A
:104F00000CFB0BF7D21B03FB0CF761EB07010CFB4F
:104F10000EF7B0EB074072EB17420CFB08F734BFFB
:104F2000A2EB0742B2EB074261EB17414FEA8C5507
:104F300004EB9C244FEA910706FB07FC4FEA1C4C4C
:104F40000CFB0BF7B0EBC74072EB573203FB0CF7CF
:104F500034BFA2EBC742B2EBC74261EB57310CFB47
:104F60000EF7B0EBC70072EB57720CFB08F734BFBB
:104F7000A2EBC702B2EBC70261EB57714FEA816146
:104F800041EA92114FEA826242EA90124FEA80604F
:104F900015EB4C2544F100044FEAD13706FB07FC22
:104FA0004FEA1C4C0CFB0BF7D21B03FB0CF761EB1D
:104FB00007010CFB0EF7B0EB074072EB17420CFB3E
:104FC00008F734BFA2EB0742B2EB074261EB17418F
:104FD0004FEA813141EA92414FEA823242EA9042FD
:104FE0004FEA80304FEA0C7615EB1C1544F10004B3
:104FF00048EA03434EEA0B484FF0000EB2EB080CB0
:1050000071EB030724BF624639464EEB0E0E4FF09C
:10501000000B0018524149414BEB0B0BB2EB080C53
:1050200071EB03077BF1000B24BF624639464EEB60
:105030000E0E4FF0000B0018524149414BEB0B0B89
:10504000B2EB080C71EB03077BF1000B24BF624647
:1050500039464EEB0E0E51EA020718BF46F0010624
:1050600016EB0E7655F1000254F1000103D5BDE8B0
:105070008901BDE80088BDE88901BDE80048B6198E
:10508000524141EB0101A3F10103704780807F7E13
:105090007D7C7B7A797877767675747372717170AE
:1050A0006F6E6E6D6C6C6B6A6A6968686766666560
:1050B0006464636362616160605F5F5E5E5D5D5CEE
:1050C0005C5B5B5A5A59595858575756565555555F
:1050D0005454535352525251515050504F4F4F4EBF
:1050E0004E4D4D4D4C4C4C4B4B4B4A4A4A4949490D
:1050F000484848474747474646464545454444444F
:1051000044434343434242424241414110B546EA8F
:1051100006464FEA164646EA42564FEAD22242EA8D
:1051200041524FEAD121A3F57053A3F1010300F0DE
:105130002FF820F0004000F0004700F1020CBCF511
:10514000006F01EB0050114640EA070000D210BD8D
:10515000BAF1000F0AD01CB503B44FF004004FF0B1
:1051600004014FF000000FBCBDE810404FF00001FB
:10517000BBF1010FB9BF04484FF0FF3103480021D4
:1051800040EA070010BD00BFFFFFEF7F0000F07F87
:105190009C46002B30D477002BD04FEA37071CB544
:1051A00003B44FF010004FF01001BAF1000F06D019
:1051B000BCF1000FDCBF40F0080040F008014FF0E8
:1051C00000000FBCBDE810400BF1010BBBF1010F5B
:1051D00008BF5FEA170722BF12F1010211F10101B6
:1051E0004FF0004143F1000300F0004043EA0000AB
:1051F0007047F9D35708D0E746EA06464FEA164605
:1052000013F1400F1FDD13F1200FDFBF16430A46D5
:10521000002120335B42BED0C3F1200746EA064698
:105220004FEA164602FA07F746EA070622FA03F2A1
:10523000C3F1200701FA07F742EA070221FA03F156
:105240004FF00003A7E746EA020646EA06464FEAA1
:10525000164646EA0106BCBF46EA0646360C4FF043
:1052600000034FF000024FF0000194E72DE9804C5D
:1052700070B49A46934691E8380007C831EA400C6A
:1052800048BF34EA430C03D5FFF7A4FDFFF780FFC6
:10529000F0BCBDE8008C2DE9804C70B49A46934672
:1052A00091E8380007C831EA400C48BF34EA430CA3
:1052B00003D5FFF78FFDFFF729FFF0BCBDE8008C99
:1052C0002DE9804C70B49A46934691E8380007C89F
:1052D00010F0804F08BF13F0804F03D100F01AF890
:1052E000FFF756FFF0BCBDE8008C2DE9804C70B490
:1052F0009A46934691E8380007C810F0804F08BFDF
:1053000013F0804F03D100F005F8FFF7FFFEF0BC6B
:10531000BDE8008C20F07F4723F07F4C80EA03003B
:1053200000F0004007EB0C03A3F57C53A3F1FE0350
:1053300092F0000F00F0B38095F0000F00F077803E
:105340002DE901494FEA114021EA00484FEA14468D
:1053500024EA064700FB06FC08FB06F607FB08F8F4
:1053600018EB06484CEB164C00FB07F718EB074808
:105370004CEB17404FEA124B22EA0B4E4FEA154610
:1053800025EA06470BFB06FC0EFB06F607FB0EFEA6
:105390001EEB064E4CEB164C0BFB07F71EEB074EB5
:1053A0004CEB174B18EB0B0840F1000018EB0E0B01
:1053B00058EB000840F100008F1A4FF000014FF049
:1053C00000063CBFC943661B14BFB5EB040C0021AB
:1053D0003CBFC943F61B4FEA174427EA04454FEA8E
:1053E0001C472CEA074C04FB076205FB07F70CFB84
:1053F00005F616EB074642EB174204FB0CFC16EBD6
:105400000C4642EB1C421BEB060658EB02024141E4
:105410004EEA8E0E46EA9E0601D5BDE80189B61910
:10542000524141EB0101A3F10103BDE801894FEABB
:10543000144524EA05464FEA114721EA074C05FBCB
:1054400007F406FB07F70CFB06F111EB074144EBF1
:10545000174405FB0CFC11EB0C4144EB1C444FEAD8
:10546000124722EA074C05FB07F206FB07F70CFB85
:1054700006F616EB074642EB174205FB0CFC16EB53
:105480000C4642EB1C456A1854F1000148BF7047B6
:10549000B619524141EB0101A3F10103704795F0A8
:1054A000000F37D04FEA114221EA02464FEA144773
:1054B00024EA074C02FB07F106FB07F70CFB06F496
:1054C00014EB074441EB174102FB0CFC14EB0C44BA
:1054D00041EB1C414FEA154725EA074C02FB07F553
:1054E00006FB07F70CFB06F616EB074645EB1745E0
:1054F00002FB0CFC16EB0C4645EB1C42121951F159
:10550000000148BF7047B619524141EB0101A3F1B8
:10551000010370474FEA144524EA05464FEA114754
:1055200021EA074C05FB07F106FB07F70CFB06F227
:1055300012EB074241EB174105FB0CFC12EB0C424E
:1055400051EB1C414FF0000648BF7047921841EBE9
:105550000101A3F10103704740F2013200204FF036
:10556000E04100F0A9BE0000024A0020110700F04F
:10557000A3BE000001FDFFFF10B50446D1E9000104
:1055800000F002F8206010BDF8B504460D466A46EA
:1055900000F080F800987E30009000281EDC002289
:1055A00013462046294600F0A7FA17D0002140F6FE
:1055B00008004FF0000006462046294600F0FCF89F
:1055C000044640F6080006EA00014FF0000034F0FF
:1055D000004004BF0220FAF727FF29E00098FF28C7
:1055E00028DB002108464FF0000000F440060022AE
:1055F00013462046294600F04BFB8CBF00250125B1
:105600000220FAF711FF4FF0FF4446B1002D0CBF06
:105610004FF400004FF48000B04218BF084C042142
:1056200008464FF00000002D04BF84F00040F8BD94
:105630002046F8BD20462946BDE8F84000F0BCB839
:10564000FFFF7F7F10B504460A46D4E900031946E0
:1056500000F04CF8C4E9000110BD30380A2801D22E
:10566000012070470020704730B583B00446FAF738
:10567000D6FE05460020CDE9000002460123214662
:105680006846FBF7ADF92846FAF7CEFEDDE90001E2
:1056900003B030BD10B5144600222260114A21F03B
:1056A00000439342A8BF10BD53EA000208BF10BDDB
:1056B000B3F5801FA8BF226807DA362200F0FCFD90
:1056C0006FF0350221F000432260DFF81CC06FF359
:1056D0001E510CEB23531A4441F0FF5141F000518D
:1056E000226010BD0000F07F02FCFFFF2DE9F041B9
:1056F00006460C4640F2FF75174635EA14502BD08B
:1057000000221346304600F0F7F925D03A463046DD
:10571000214600F0D1FD06460C4635EA145010D063
:1057200000221346304600F0E7F915D10220FAF7BF
:105730007BFEFFF719FF0A46214662F31E01BDE812
:10574000F0810220FAF770FEFFF706FF0A462146B5
:1057500062F31E01BDE8F08130462146BDE8F081CC
:1057600010B500290AD00878002807D005487844E9
:10577000FBF740FD002801D0002010BD024878440E
:1057800010BD00001A0D0000120D000010B5002918
:105790000AD00878002807D005487844FBF72AFD8E
:1057A000002801D0002010BD0248784410BD000040
:1057B0000A0D0000020D000021F0004201F000433C
:1057C000A2F16052B2F5801F28BFD2F17F6C0BD9D5
:1057D0005FEA001C43EAC20242EB507018BF7047F8
:1057E00028BF20F001007047B2F5801FBCBF1846EB
:1057F00070474FEA410C1CF5001F02D2084600F02A
:10580000ACBC70B500F0F0F900000089FFF7F6BFFE
:105810004FF00040A0F580007047000002494FF0B3
:10582000000000F017BD00BF0000F87F491058BF0E
:10583000C1F140415B1058BFC3F140438B42EFF3CD
:10584000008070472DE9C04130B4DFF8A4C23CEAC3
:10585000111418BF3CEA131400F0ED801CEA111477
:1058600081EA030544EAD57418BF1CEA131500F059
:10587000C880A4EB050404F17F7404F500344FF0F4
:10588000004545EAC12145EAC32341EA505143EAB4
:1058900052534FEAC0204FEAC222994208BF9042B9
:1058A00000F09D804FEA13650FF24416765D4FEAD3
:1058B000134506FB05F7C7F1807706FB07F74FEAAC
:1058C000D737A7FB03687642A7FB06CEC8F580381A
:1058D00038BFA8F1010807FB08E6A6FB028C4FF0D1
:1058E000000EE6FB03CEDCF1000CCEF1004E38BF1B
:1058F000AEF1010EA6FB0C584FF00007E6FB0E8739
:10590000A1FB08C6A0FB07CE16EB0E064FF0000564
:1059100045F10005E1FB076515F1E04E7EBFA4F5FA
:1059200080345FEA46066D4116F1800745F10005B7
:105930004FEA172747EA05674FEA15254FEA06663B
:10594000A6F1DE46B6F1805F20D9384605EBC4717A
:1059500024F0010C01EB0C11BCF1FE6F02D8F0BC7D
:10596000BDE8008124425CBF01F5801E9EEAC47F31
:1059700002D4F0BCBDE80081244200F13980A1F1DD
:10598000C041F0BCBDE8004100F07CB94FEAD02036
:1059900040EA41504FEAD1214FEAD22242EA435233
:1059A0004FEAD323A7FB028607FB036605FB0266CB
:1059B0001EEA0E0F58BFA6EB0056B6EB00564FEA94
:1059C000520E4EEAC37E18EB0E0E56EB530EBCD5AC
:1059D00018EB02085E417F1C55F10005B5E74FF456
:1059E00080154FF000074FF000064FF00008ACE7BD
:1059F00001F1C04101F000414FF00000F0BCBDE8F2
:105A000000810CEA131511EA0C1F00D00CE013EA18
:105A10000C1F00F026804FF0000081EA030101F026
:105A20000041F0BCBDE80081F0BCBDE8004181EA66
:105A3000030100F027B9F0BCBDE8004170B500F0EB
:105A4000D3F800BF097EFC3E00F007B84FF000001D
:105A500081EA030101F00041704781EA030100F08F
:105A600011B9F0BCBDE8004122494FF00000704779
:105A7000FFFDFBF9F7F5F4F2F0EEEDEBE9E8E6E413
:105A8000E3E1E0DEDDDBDAD8D7D5D4D3D1D0CFCD9A
:105A9000CCCBCAC8C7C6C5C4C2C1C0BFBEBDBCBBD3
:105AA000BAB9B8B7B6B5B4B3B2B1B0AFAEADACABCE
:105AB000AAA9A8A8A7A6A5A4A3A3A2A1A09F9F9EA8
:105AC0009D9C9C9B9A99999897979695959493935A
:105AD000929191908F8F8E8E8D8C8C8B8B8A8989F1
